{
  "contractName": "ParentApprover",
  "abi": [
    {
      "constant": false,
      "inputs": [
        {
          "name": "parentAddress",
          "type": "address"
        }
      ],
      "name": "setParent",
      "outputs": [],
      "payable": false,
      "stateMutability": "nonpayable",
      "type": "function"
    },
    {
      "constant": true,
      "inputs": [],
      "name": "getParent",
      "outputs": [
        {
          "name": "parentAddress",
          "type": "address"
        }
      ],
      "payable": false,
      "stateMutability": "view",
      "type": "function"
    },
    {
      "constant": false,
      "inputs": [],
      "name": "payMe",
      "outputs": [
        {
          "name": "payed",
          "type": "bool"
        }
      ],
      "payable": true,
      "stateMutability": "payable",
      "type": "function"
    }
  ],
  "bytecode": "0x6060604052341561000f57600080fd5b6102058061001e6000396000f300606060405260043610610057576000357c0100000000000000000000000000000000000000000000000000000000900463ffffffff1680631499c5921461005c57806380f7602114610095578063d997ccb3146100ea575b600080fd5b341561006757600080fd5b610093600480803573ffffffffffffffffffffffffffffffffffffffff1690602001909190505061010c565b005b34156100a057600080fd5b6100a86101ab565b604051808273ffffffffffffffffffffffffffffffffffffffff1673ffffffffffffffffffffffffffffffffffffffff16815260200191505060405180910390f35b6100f26101d4565b604051808215151515815260200191505060405180910390f35b600073ffffffffffffffffffffffffffffffffffffffff166000809054906101000a900473ffffffffffffffffffffffffffffffffffffffff1673ffffffffffffffffffffffffffffffffffffffff1614151561016857600080fd5b806000806101000a81548173ffffffffffffffffffffffffffffffffffffffff021916908373ffffffffffffffffffffffffffffffffffffffff16021790555050565b60008060009054906101000a900473ffffffffffffffffffffffffffffffffffffffff16905090565b6000905600a165627a7a72305820fa0f2f7218c96bef5543ca1640e19fe66e4e8dc49170561513852b75afddea890029",
  "source": "pragma solidity ^0.4.17;\n\ncontract ParentApprover {\n\n  address private parent;\n\n  function setParent(address parentAddress) public {\n    require(parent == 0x0000000000000000000000000000000000000000);\n\n    parent = parentAddress;\n  }\n\n  function getParent() public view returns (address parentAddress) {\n    return parent;\n  }\n\n  function payMe() payable returns (bool payed) {\n\n  }\n\n}\n",
  "sourcePath": "/Users/theobohnen/Source/Ethereum/parent-approver-wallet/contracts/ParentApprover.sol",
  "compiler": {
    "name": "solc",
    "version": "0.4.18+commit.9cf6e910.Emscripten.clang"
  },
  "schemaVersion": "1.0.1",
  "updatedAt": "2018-01-25T16:26:10.167Z"
}